{
  "address": "0xcC1870FeAaBc32A22795375D2382232a4DB8FB6E",
  "abi": [
    {
      "inputs": [
        {
          "internalType": "uint256",
          "name": "_distributionAmount",
          "type": "uint256"
        },
        {
          "internalType": "address[]",
          "name": "_managers",
          "type": "address[]"
        }
      ],
      "stateMutability": "payable",
      "type": "constructor"
    },
    {
      "inputs": [],
      "name": "TooManyReceivers",
      "type": "error"
    },
    {
      "anonymous": false,
      "inputs": [],
      "name": "DistributeGas",
      "type": "event"
    },
    {
      "anonymous": false,
      "inputs": [
        {
          "indexed": true,
          "internalType": "bytes32",
          "name": "role",
          "type": "bytes32"
        },
        {
          "indexed": true,
          "internalType": "bytes32",
          "name": "previousAdminRole",
          "type": "bytes32"
        },
        {
          "indexed": true,
          "internalType": "bytes32",
          "name": "newAdminRole",
          "type": "bytes32"
        }
      ],
      "name": "RoleAdminChanged",
      "type": "event"
    },
    {
      "anonymous": false,
      "inputs": [
        {
          "indexed": true,
          "internalType": "bytes32",
          "name": "role",
          "type": "bytes32"
        },
        {
          "indexed": true,
          "internalType": "address",
          "name": "account",
          "type": "address"
        },
        {
          "indexed": true,
          "internalType": "address",
          "name": "sender",
          "type": "address"
        }
      ],
      "name": "RoleGranted",
      "type": "event"
    },
    {
      "anonymous": false,
      "inputs": [
        {
          "indexed": true,
          "internalType": "bytes32",
          "name": "role",
          "type": "bytes32"
        },
        {
          "indexed": true,
          "internalType": "address",
          "name": "account",
          "type": "address"
        },
        {
          "indexed": true,
          "internalType": "address",
          "name": "sender",
          "type": "address"
        }
      ],
      "name": "RoleRevoked",
      "type": "event"
    },
    {
      "anonymous": false,
      "inputs": [
        {
          "indexed": true,
          "internalType": "uint256",
          "name": "distributionAmount",
          "type": "uint256"
        }
      ],
      "name": "SetDistributionAmount",
      "type": "event"
    },
    {
      "inputs": [],
      "name": "DEFAULT_ADMIN_ROLE",
      "outputs": [
        {
          "internalType": "bytes32",
          "name": "",
          "type": "bytes32"
        }
      ],
      "stateMutability": "view",
      "type": "function"
    },
    {
      "inputs": [],
      "name": "MANAGER_ROLE",
      "outputs": [
        {
          "internalType": "bytes32",
          "name": "",
          "type": "bytes32"
        }
      ],
      "stateMutability": "view",
      "type": "function"
    },
    {
      "inputs": [],
      "name": "balanceOf",
      "outputs": [
        {
          "internalType": "uint256",
          "name": "",
          "type": "uint256"
        }
      ],
      "stateMutability": "view",
      "type": "function"
    },
    {
      "inputs": [
        {
          "internalType": "address",
          "name": "user",
          "type": "address"
        }
      ],
      "name": "balanceOfUser",
      "outputs": [
        {
          "internalType": "uint256",
          "name": "",
          "type": "uint256"
        }
      ],
      "stateMutability": "view",
      "type": "function"
    },
    {
      "inputs": [
        {
          "internalType": "address[]",
          "name": "receivers",
          "type": "address[]"
        }
      ],
      "name": "distributeGas",
      "outputs": [],
      "stateMutability": "nonpayable",
      "type": "function"
    },
    {
      "inputs": [],
      "name": "distributionAmount",
      "outputs": [
        {
          "internalType": "uint256",
          "name": "",
          "type": "uint256"
        }
      ],
      "stateMutability": "view",
      "type": "function"
    },
    {
      "inputs": [
        {
          "internalType": "bytes32",
          "name": "role",
          "type": "bytes32"
        }
      ],
      "name": "getRoleAdmin",
      "outputs": [
        {
          "internalType": "bytes32",
          "name": "",
          "type": "bytes32"
        }
      ],
      "stateMutability": "view",
      "type": "function"
    },
    {
      "inputs": [
        {
          "internalType": "bytes32",
          "name": "role",
          "type": "bytes32"
        },
        {
          "internalType": "address",
          "name": "account",
          "type": "address"
        }
      ],
      "name": "grantRole",
      "outputs": [],
      "stateMutability": "nonpayable",
      "type": "function"
    },
    {
      "inputs": [
        {
          "internalType": "bytes32",
          "name": "role",
          "type": "bytes32"
        },
        {
          "internalType": "address",
          "name": "account",
          "type": "address"
        }
      ],
      "name": "hasRole",
      "outputs": [
        {
          "internalType": "bool",
          "name": "",
          "type": "bool"
        }
      ],
      "stateMutability": "view",
      "type": "function"
    },
    {
      "inputs": [
        {
          "internalType": "bytes32",
          "name": "role",
          "type": "bytes32"
        },
        {
          "internalType": "address",
          "name": "account",
          "type": "address"
        }
      ],
      "name": "renounceRole",
      "outputs": [],
      "stateMutability": "nonpayable",
      "type": "function"
    },
    {
      "inputs": [
        {
          "internalType": "bytes32",
          "name": "role",
          "type": "bytes32"
        },
        {
          "internalType": "address",
          "name": "account",
          "type": "address"
        }
      ],
      "name": "revokeRole",
      "outputs": [],
      "stateMutability": "nonpayable",
      "type": "function"
    },
    {
      "inputs": [
        {
          "internalType": "uint256",
          "name": "newAmount",
          "type": "uint256"
        }
      ],
      "name": "setDistributionAmount",
      "outputs": [],
      "stateMutability": "nonpayable",
      "type": "function"
    },
    {
      "inputs": [
        {
          "internalType": "bytes4",
          "name": "interfaceId",
          "type": "bytes4"
        }
      ],
      "name": "supportsInterface",
      "outputs": [
        {
          "internalType": "bool",
          "name": "",
          "type": "bool"
        }
      ],
      "stateMutability": "view",
      "type": "function"
    },
    {
      "inputs": [],
      "name": "withdraw",
      "outputs": [],
      "stateMutability": "nonpayable",
      "type": "function"
    }
  ],
  "transactionHash": "0x58c4707d8ce042dfeeae0ab8568f8b0b2dce419f8acca61c6a9315a19ba75c7f",
  "args": [
    "10000000000000",
    []
  ],
  "numDeployments": 5,
  "solcInputHash": "fb985d72a9d6be591f3b67dc76996c63",
  "bytecode": "0x608060405260405162000d4438038062000d4483398101604081905262000026916200018c565b62000033600033620000b8565b6200004e60008051602062000d2483398151915233620000b8565b60005b8151811015620000ad576200009860008051602062000d248339815191528383815181106200008457620000846200026c565b6020026020010151620000b860201b60201c565b80620000a48162000282565b91505062000051565b5050600155620002aa565b6000828152602081815260408083206001600160a01b038516845290915290205460ff1662000155576000828152602081815260408083206001600160a01b03851684529091529020805460ff19166001179055620001143390565b6001600160a01b0316816001600160a01b0316837f2f8788117e7eff1d82e926ec794901d17c78024a50270940304540a733656f0d60405160405180910390a45b5050565b634e487b7160e01b600052604160045260246000fd5b80516001600160a01b03811681146200018757600080fd5b919050565b60008060408385031215620001a057600080fd5b8251602080850151919350906001600160401b0380821115620001c257600080fd5b818601915086601f830112620001d757600080fd5b815181811115620001ec57620001ec62000159565b8060051b604051601f19603f8301168101818110858211171562000214576200021462000159565b6040529182528482019250838101850191898311156200023357600080fd5b938501935b828510156200025c576200024c856200016f565b8452938501939285019262000238565b8096505050505050509250929050565b634e487b7160e01b600052603260045260246000fd5b600060018201620002a357634e487b7160e01b600052601160045260246000fd5b5060010190565b610a6a80620002ba6000396000f3fe608060405234801561001057600080fd5b50600436106100ba5760003560e01c806301ffc9a7146100bf57806312cae7af146100e7578063248a9ca3146101105780632e07107f146101235780632f2ff15d1461013857806336568abe1461014b5780633ccfd60b1461015e578063722713f71461016657806391d148541461016c578063a217fddf1461017f578063b0e0c68114610187578063d547741f14610190578063ec87621c146101a3578063fc8286fd146101b8575b600080fd5b6100d26100cd366004610761565b6101cb565b60405190151581526020015b60405180910390f35b6101026100f53660046107a7565b6001600160a01b03163190565b6040519081526020016100de565b61010261011e3660046107c2565b610202565b6101366101313660046107f1565b610217565b005b6101366101463660046108b5565b6102f2565b6101366101593660046108b5565b610313565b610136610396565b47610102565b6100d261017a3660046108b5565b6103cd565b610102600081565b61010260015481565b61013661019e3660046108b5565b6103f6565b610102600080516020610a1583398151915281565b6101366101c63660046107c2565b610412565b60006001600160e01b03198216637965db0b60e01b14806101fc57506301ffc9a760e01b6001600160e01b03198316145b92915050565b60009081526020819052604090206001015490565b600080516020610a1583398151915261022f8161045e565b612ee0825111156102535760405163c1e676e960e01b815260040160405180910390fd5b60005b82518161ffff1610156102c457828161ffff1681518110610279576102796108e1565b60200260200101516001600160a01b03166108fc6001549081150290604051600060405180830381858888f193505050501580156102bb573d6000803e3d6000fd5b50600101610256565b506040517fa2b9c28b25114baa3bca17bb9ed3b35297b37f9a7ccdc6630bd6df27999dcb7b90600090a15050565b6102fb82610202565b6103048161045e565b61030e838361046b565b505050565b6001600160a01b03811633146103885760405162461bcd60e51b815260206004820152602f60248201527f416363657373436f6e74726f6c3a2063616e206f6e6c792072656e6f756e636560448201526e103937b632b9903337b91039b2b63360891b60648201526084015b60405180910390fd5b61039282826104ef565b5050565b60006103a18161045e565b60405133904780156108fc02916000818181858888f19350505050158015610392573d6000803e3d6000fd5b6000918252602082815260408084206001600160a01b0393909316845291905290205460ff1690565b6103ff82610202565b6104088161045e565b61030e83836104ef565b600080516020610a1583398151915261042a8161045e565b600182905560405182907f6829d61657d30157c2d9604b9ed0cc2f72b01c6632f46e90674acf1d44194cf190600090a25050565b6104688133610554565b50565b61047582826103cd565b610392576000828152602081815260408083206001600160a01b03851684529091529020805460ff191660011790556104ab3390565b6001600160a01b0316816001600160a01b0316837f2f8788117e7eff1d82e926ec794901d17c78024a50270940304540a733656f0d60405160405180910390a45050565b6104f982826103cd565b15610392576000828152602081815260408083206001600160a01b0385168085529252808320805460ff1916905551339285917ff6391f5c32d9c69d2a47ea670b442974b53935d1edc7fd64eb21e047a839171b9190a45050565b61055e82826103cd565b6103925761056b816105ad565b6105768360206105bf565b60405160200161058792919061091b565b60408051601f198184030181529082905262461bcd60e51b825261037f9160040161098a565b60606101fc6001600160a01b03831660145b606060006105ce8360026109d3565b6105d99060026109ea565b6001600160401b038111156105f0576105f06107db565b6040519080825280601f01601f19166020018201604052801561061a576020820181803683370190505b509050600360fc1b81600081518110610635576106356108e1565b60200101906001600160f81b031916908160001a905350600f60fb1b81600181518110610664576106646108e1565b60200101906001600160f81b031916908160001a90535060006106888460026109d3565b6106939060016109ea565b90505b600181111561070b576f181899199a1a9b1b9c1cb0b131b232b360811b85600f16601081106106c7576106c76108e1565b1a60f81b8282815181106106dd576106dd6108e1565b60200101906001600160f81b031916908160001a90535060049490941c93610704816109fd565b9050610696565b50831561075a5760405162461bcd60e51b815260206004820181905260248201527f537472696e67733a20686578206c656e67746820696e73756666696369656e74604482015260640161037f565b9392505050565b60006020828403121561077357600080fd5b81356001600160e01b03198116811461075a57600080fd5b80356001600160a01b03811681146107a257600080fd5b919050565b6000602082840312156107b957600080fd5b61075a8261078b565b6000602082840312156107d457600080fd5b5035919050565b634e487b7160e01b600052604160045260246000fd5b6000602080838503121561080457600080fd5b82356001600160401b038082111561081b57600080fd5b818501915085601f83011261082f57600080fd5b813581811115610841576108416107db565b8060051b604051601f19603f83011681018181108582111715610866576108666107db565b60405291825284820192508381018501918883111561088457600080fd5b938501935b828510156108a95761089a8561078b565b84529385019392850192610889565b98975050505050505050565b600080604083850312156108c857600080fd5b823591506108d86020840161078b565b90509250929050565b634e487b7160e01b600052603260045260246000fd5b60005b838110156109125781810151838201526020016108fa565b50506000910152565b76020b1b1b2b9b9a1b7b73a3937b61d1030b1b1b7bab73a1604d1b81526000835161094d8160178501602088016108f7565b7001034b99036b4b9b9b4b733903937b6329607d1b601791840191820152835161097e8160288401602088016108f7565b01602801949350505050565b60208152600082518060208401526109a98160408501602087016108f7565b601f01601f19169190910160400192915050565b634e487b7160e01b600052601160045260246000fd5b80820281158282048414176101fc576101fc6109bd565b808201808211156101fc576101fc6109bd565b600081610a0c57610a0c6109bd565b50600019019056fe241ecf16d79d0f8dbfb92cbc07fe17840425976cf0667f022fe9877caa831b08a26469706673582212200294e55d94e7ec3035a5315ada4ec1f23debe506e93b6d912c211e900b1c323964736f6c63430008130033241ecf16d79d0f8dbfb92cbc07fe17840425976cf0667f022fe9877caa831b08",
  "devdoc": {
    "events": {
      "RoleAdminChanged(bytes32,bytes32,bytes32)": {
        "details": "Emitted when `newAdminRole` is set as ``role``'s admin role, replacing `previousAdminRole` `DEFAULT_ADMIN_ROLE` is the starting admin for all roles, despite {RoleAdminChanged} not being emitted signaling this. _Available since v3.1._"
      },
      "RoleGranted(bytes32,address,address)": {
        "details": "Emitted when `account` is granted `role`. `sender` is the account that originated the contract call, an admin role bearer except when using {AccessControl-_setupRole}."
      },
      "RoleRevoked(bytes32,address,address)": {
        "details": "Emitted when `account` is revoked `role`. `sender` is the account that originated the contract call:   - if using `revokeRole`, it is the admin role bearer   - if using `renounceRole`, it is the role bearer (i.e. `account`)"
      }
    },
    "kind": "dev",
    "methods": {
      "getRoleAdmin(bytes32)": {
        "details": "Returns the admin role that controls `role`. See {grantRole} and {revokeRole}. To change a role's admin, use {_setRoleAdmin}."
      },
      "grantRole(bytes32,address)": {
        "details": "Grants `role` to `account`. If `account` had not been already granted `role`, emits a {RoleGranted} event. Requirements: - the caller must have ``role``'s admin role. May emit a {RoleGranted} event."
      },
      "hasRole(bytes32,address)": {
        "details": "Returns `true` if `account` has been granted `role`."
      },
      "renounceRole(bytes32,address)": {
        "details": "Revokes `role` from the calling account. Roles are often managed via {grantRole} and {revokeRole}: this function's purpose is to provide a mechanism for accounts to lose their privileges if they are compromised (such as when a trusted device is misplaced). If the calling account had been revoked `role`, emits a {RoleRevoked} event. Requirements: - the caller must be `account`. May emit a {RoleRevoked} event."
      },
      "revokeRole(bytes32,address)": {
        "details": "Revokes `role` from `account`. If `account` had been granted `role`, emits a {RoleRevoked} event. Requirements: - the caller must have ``role``'s admin role. May emit a {RoleRevoked} event."
      },
      "supportsInterface(bytes4)": {
        "details": "See {IERC165-supportsInterface}."
      }
    },
    "version": 1
  },
  "userdoc": {
    "kind": "user",
    "methods": {},
    "version": 1
  },
  "storageLayout": {
    "storage": [
      {
        "astId": 24,
        "contract": "contracts/MassGasDistribution.sol:MassGasDistribution",
        "label": "_roles",
        "offset": 0,
        "slot": "0",
        "type": "t_mapping(t_bytes32,t_struct(RoleData)19_storage)"
      },
      {
        "astId": 1668,
        "contract": "contracts/MassGasDistribution.sol:MassGasDistribution",
        "label": "distributionAmount",
        "offset": 0,
        "slot": "1",
        "type": "t_uint256"
      }
    ],
    "types": {
      "t_address": {
        "encoding": "inplace",
        "label": "address",
        "numberOfBytes": "20"
      },
      "t_bool": {
        "encoding": "inplace",
        "label": "bool",
        "numberOfBytes": "1"
      },
      "t_bytes32": {
        "encoding": "inplace",
        "label": "bytes32",
        "numberOfBytes": "32"
      },
      "t_mapping(t_address,t_bool)": {
        "encoding": "mapping",
        "key": "t_address",
        "label": "mapping(address => bool)",
        "numberOfBytes": "32",
        "value": "t_bool"
      },
      "t_mapping(t_bytes32,t_struct(RoleData)19_storage)": {
        "encoding": "mapping",
        "key": "t_bytes32",
        "label": "mapping(bytes32 => struct AccessControl.RoleData)",
        "numberOfBytes": "32",
        "value": "t_struct(RoleData)19_storage"
      },
      "t_struct(RoleData)19_storage": {
        "encoding": "inplace",
        "label": "struct AccessControl.RoleData",
        "members": [
          {
            "astId": 16,
            "contract": "contracts/MassGasDistribution.sol:MassGasDistribution",
            "label": "members",
            "offset": 0,
            "slot": "0",
            "type": "t_mapping(t_address,t_bool)"
          },
          {
            "astId": 18,
            "contract": "contracts/MassGasDistribution.sol:MassGasDistribution",
            "label": "adminRole",
            "offset": 0,
            "slot": "1",
            "type": "t_bytes32"
          }
        ],
        "numberOfBytes": "64"
      },
      "t_uint256": {
        "encoding": "inplace",
        "label": "uint256",
        "numberOfBytes": "32"
      }
    }
  }
}